:100000000C942A000C9434000C9434000C943400AA
:100010000C9434000C9434000C9434000C94340090
:100020000C9434000C9434000C9436000C9434007E
:100030000C9434000C9434000C9434000C94340070
:100040000C9434000C9434000C9434000C94340060
:100050000C94340011241FBECFE5D8E0DEBFCDBF25
:100060000E9448000C9456000C9400001F920F92BE
:100070000FB60F9211248F939F939BB380E2892731
:100080008BBB9F918F910F900FBE0F901F90189573
:10009000D59A88E28CBF89E083BF82E089BF7894DB
:1000A00014BA8FEF81BB83B382BBFDCFF894FFCF2F
:00000001FF
